{"abi":[{"type":"constructor","inputs":[{"name":"entranceFee","type":"uint256","internalType":"uint256"},{"name":"interval","type":"uint256","internalType":"uint256"},{"name":"vrfCoordinator","type":"address","internalType":"address"},{"name":"gasLane","type":"bytes32","internalType":"bytes32"},{"name":"subscriptionId","type":"uint64","internalType":"uint64"},{"name":"callBackGasLimit","type":"uint32","internalType":"uint32"}],"stateMutability":"nonpayable"},{"type":"function","name":"checkUpkeep","inputs":[{"name":"","type":"bytes","internalType":"bytes"}],"outputs":[{"name":"upkeepNeeded","type":"bool","internalType":"bool"},{"name":"","type":"bytes","internalType":"bytes"}],"stateMutability":"view"},{"type":"function","name":"enterRaffle","inputs":[],"outputs":[],"stateMutability":"payable"},{"type":"function","name":"getEntranceFee","inputs":[],"outputs":[{"name":"","type":"uint256","internalType":"uint256"}],"stateMutability":"view"},{"type":"function","name":"getPlayer","inputs":[{"name":"index","type":"uint256","internalType":"uint256"}],"outputs":[{"name":"","type":"address","internalType":"address"}],"stateMutability":"view"},{"type":"function","name":"getPlayersArray","inputs":[],"outputs":[{"name":"","type":"address[]","internalType":"address payable[]"}],"stateMutability":"view"},{"type":"function","name":"getRaffleState","inputs":[],"outputs":[{"name":"","type":"uint8","internalType":"enum Raffle.RaffleState"}],"stateMutability":"view"},{"type":"function","name":"performUpkeep","inputs":[{"name":"","type":"bytes","internalType":"bytes"}],"outputs":[],"stateMutability":"nonpayable"},{"type":"function","name":"rawFulfillRandomWords","inputs":[{"name":"requestId","type":"uint256","internalType":"uint256"},{"name":"randomWords","type":"uint256[]","internalType":"uint256[]"}],"outputs":[],"stateMutability":"nonpayable"},{"type":"event","name":"EnteredRaffle","inputs":[{"name":"player","type":"address","indexed":true,"internalType":"address"}],"anonymous":false},{"type":"event","name":"PickedWinner","inputs":[{"name":"player","type":"address","indexed":true,"internalType":"address"}],"anonymous":false},{"type":"event","name":"RequestedRaffleWinner","inputs":[{"name":"requestId","type":"uint256","indexed":true,"internalType":"uint256"}],"anonymous":false},{"type":"error","name":"OnlyCoordinatorCanFulfill","inputs":[{"name":"have","type":"address","internalType":"address"},{"name":"want","type":"address","internalType":"address"}]},{"type":"error","name":"Raffle__NotEnoughETHSent","inputs":[]},{"type":"error","name":"Raffle__RaffleNotOpen","inputs":[]},{"type":"error","name":"Raffle__TransferFailed","inputs":[]},{"type":"error","name":"Raffle__UpkeepNotNeeded","inputs":[{"name":"currentBalance","type":"uint256","internalType":"uint256"},{"name":"numPlayers","type":"uint256","internalType":"uint256"},{"name":"raffleState","type":"uint256","internalType":"uint256"}]}],"bytecode":{"object":"0x61016060405234801561001157600080fd5b50604051610d2f380380610d2f83398101604081905261003091610087565b6001600160a01b0393909316608081905260a09590955260c0939093526101409390935260e0929092526001600160401b03166101005263ffffffff16610120526001805460ff60a01b1916905542600255610112565b60008060008060008060c087890312156100a057600080fd5b86516020880151604089015191975095506001600160a01b03811681146100c657600080fd5b6060880151608089015191955093506001600160401b03811681146100ea57600080fd5b60a088015190925063ffffffff8116811461010457600080fd5b809150509295509295509295565b60805160a05160c05160e051610100516101205161014051610bb6610179600039600061046501526000610426015260006103ef015260006103c901526000610570015260008181609201526102480152600081816101c401526102060152610bb66000f3fe60806040526004361061007b5760003560e01c80634585e33b1161004e5780634585e33b14610111578063604094be146101315780636e04ff0d14610153578063e55ae4e81461018157600080fd5b806309bc33a714610080578063115cbaf5146100c05780631fe543e3146100e75780632cfcc53914610109575b600080fd5b34801561008c57600080fd5b506040517f000000000000000000000000000000000000000000000000000000000000000081526020015b60405180910390f35b3480156100cc57600080fd5b50600154600160a01b900460ff166040516100b79190610821565b3480156100f357600080fd5b50610107610102366004610890565b6101b9565b005b610107610246565b34801561011d57600080fd5b5061010761012c366004610942565b610331565b34801561013d57600080fd5b50610146610506565b6040516100b791906109b4565b34801561015f57600080fd5b5061017361016e366004610a01565b610568565b6040516100b7929190610a96565b34801561018d57600080fd5b506101a161019c366004610aef565b610625565b6040516001600160a01b0390911681526020016100b7565b336001600160a01b037f000000000000000000000000000000000000000000000000000000000000000016146102385760405163073e64fd60e21b81523360048201526001600160a01b037f00000000000000000000000000000000000000000000000000000000000000001660248201526044015b60405180910390fd5b6102428282610654565b5050565b7f00000000000000000000000000000000000000000000000000000000000000003410156102875760405163384b5a2b60e11b815260040160405180910390fd5b600060018054600160a01b900460ff16908111156102a7576102a761080b565b146102c55760405163349289c560e21b815260040160405180910390fd5b600080546001810182558180527f290decd9548b62a8d60345a988386fc84ba6bc95484008f6362f93160ef3e5630180546001600160a01b0319163390811790915560405190917f819fbd717c9d0b421352c5116a644ca68ba176960c33f406f08d98a27370ca2791a2565b600061034b60405180602001604052806000815250610568565b509050806103a55747600080549050600160149054906101000a900460ff16600181111561037b5761037b61080b565b604051632c2193d560e11b815260048101939093526024830191909152604482015260640161022f565b60018054600160a01b60ff60a01b199091161781556040516305d3b1d360e41b81527f000000000000000000000000000000000000000000000000000000000000000060048201527f000000000000000000000000000000000000000000000000000000000000000067ffffffffffffffff166024820152600360448201527f000000000000000000000000000000000000000000000000000000000000000063ffffffff16606482015260848101919091526000906001600160a01b037f00000000000000000000000000000000000000000000000000000000000000001690635d3b1d309060a4016020604051808303816000875af11580156104ae573d6000803e3d6000fd5b505050506040513d601f19601f820116820180604052508101906104d29190610b08565b60405190915081907fcd6e45c8998311cab7e9d4385596cac867e20a0587194b954fa3a731c93ce78b90600090a250505050565b6060600080548060200260200160405190810160405280929190818152602001828054801561055e57602002820191906000526020600020905b81546001600160a01b03168152600190910190602001808311610540575b5050505050905090565b6000606060007f00000000000000000000000000000000000000000000000000000000000000006002544261059d9190610b21565b101590506000600160149054906101000a900460ff1660018111156105c4576105c461080b565b600080549115925090158015906105db5750600047115b6105e65760006105e9565b60015b90508280156105f55750815b80156105fe5750805b60408051808201909152600381526203078360ec1b60208201529097909650945050505050565b600080828154811061063957610639610b48565b6000918252602090912001546001600160a01b031692915050565b6000805482518390839061066a5761066a610b48565b602002602001015161067c9190610b5e565b9050600080828154811061069257610692610b48565b600091825260208083209190910154600180546001600160a81b0319166001600160a01b039092169182179055604080518481529283019081905291519093506106dd929190610791565b50426002556040516001600160a01b038216907fb112587e57bfa970257f3d54fc52859c6300f6bd7a982462c320fed45c2530ed90600090a26000816001600160a01b03164760405160006040518083038185875af1925050503d8060008114610763576040519150601f19603f3d011682016040523d82523d6000602084013e610768565b606091505b505090508061078a5760405163a1d04b3960e01b815260040160405180910390fd5b5050505050565b8280548282559060005260206000209081019282156107e6579160200282015b828111156107e657825182546001600160a01b0319166001600160a01b039091161782556020909201916001909101906107b1565b506107f29291506107f6565b5090565b5b808211156107f257600081556001016107f7565b634e487b7160e01b600052602160045260246000fd5b602081016002831061084357634e487b7160e01b600052602160045260246000fd5b91905290565b634e487b7160e01b600052604160045260246000fd5b604051601f8201601f1916810167ffffffffffffffff8111828210171561088857610888610849565b604052919050565b600080604083850312156108a357600080fd5b8235915060208084013567ffffffffffffffff808211156108c357600080fd5b818601915086601f8301126108d757600080fd5b8135818111156108e9576108e9610849565b8060051b91506108fa84830161085f565b818152918301840191848101908984111561091457600080fd5b938501935b8385101561093257843582529385019390850190610919565b8096505050505050509250929050565b6000806020838503121561095557600080fd5b823567ffffffffffffffff8082111561096d57600080fd5b818501915085601f83011261098157600080fd5b81358181111561099057600080fd5b8660208285010111156109a257600080fd5b60209290920196919550909350505050565b6020808252825182820181905260009190848201906040850190845b818110156109f55783516001600160a01b0316835292840192918401916001016109d0565b50909695505050505050565b60006020808385031215610a1457600080fd5b823567ffffffffffffffff80821115610a2c57600080fd5b818501915085601f830112610a4057600080fd5b813581811115610a5257610a52610849565b610a64601f8201601f1916850161085f565b91508082528684828501011115610a7a57600080fd5b8084840185840137600090820190930192909252509392505050565b82151581526000602060406020840152835180604085015260005b81811015610acd57858101830151858201606001528201610ab1565b506000606082860101526060601f19601f830116850101925050509392505050565b600060208284031215610b0157600080fd5b5035919050565b600060208284031215610b1a57600080fd5b5051919050565b81810381811115610b4257634e487b7160e01b600052601160045260246000fd5b92915050565b634e487b7160e01b600052603260045260246000fd5b600082610b7b57634e487b7160e01b600052601260045260246000fd5b50069056fea26469706673582212203ed0bb26358aff426f1621245a9bc7adb2c37a5385bbae357c8f54169cf774ab64736f6c63430008180033","linkReferences":{}},"methodIdentifiers":{"checkUpkeep(bytes)":"6e04ff0d","enterRaffle()":"2cfcc539","getEntranceFee()":"09bc33a7","getPlayer(uint256)":"e55ae4e8","getPlayersArray()":"604094be","getRaffleState()":"115cbaf5","performUpkeep(bytes)":"4585e33b","rawFulfillRandomWords(uint256,uint256[])":"1fe543e3"},"id":0}