{"abi":[{"type":"constructor","inputs":[{"name":"entranceFee","type":"uint256","internalType":"uint256"},{"name":"interval","type":"uint256","internalType":"uint256"},{"name":"vrfCoordinator","type":"address","internalType":"address"},{"name":"gasLane","type":"bytes32","internalType":"bytes32"},{"name":"subscriptionId","type":"uint64","internalType":"uint64"},{"name":"callBackGasLimit","type":"uint32","internalType":"uint32"}],"stateMutability":"nonpayable"},{"type":"function","name":"checkUpkeep","inputs":[{"name":"","type":"bytes","internalType":"bytes"}],"outputs":[{"name":"upkeepNeeded","type":"bool","internalType":"bool"},{"name":"","type":"bytes","internalType":"bytes"}],"stateMutability":"view"},{"type":"function","name":"enterRaffle","inputs":[],"outputs":[],"stateMutability":"payable"},{"type":"function","name":"getEntranceFee","inputs":[],"outputs":[{"name":"","type":"uint256","internalType":"uint256"}],"stateMutability":"view"},{"type":"function","name":"getInterval","inputs":[],"outputs":[{"name":"","type":"uint256","internalType":"uint256"}],"stateMutability":"view"},{"type":"function","name":"getLastTimestamp","inputs":[],"outputs":[{"name":"","type":"uint256","internalType":"uint256"}],"stateMutability":"view"},{"type":"function","name":"getLengthOfPlayers","inputs":[],"outputs":[{"name":"","type":"uint256","internalType":"uint256"}],"stateMutability":"view"},{"type":"function","name":"getPlayer","inputs":[{"name":"index","type":"uint256","internalType":"uint256"}],"outputs":[{"name":"","type":"address","internalType":"address"}],"stateMutability":"view"},{"type":"function","name":"getPlayersArray","inputs":[],"outputs":[{"name":"","type":"address[]","internalType":"address payable[]"}],"stateMutability":"view"},{"type":"function","name":"getRaffleState","inputs":[],"outputs":[{"name":"","type":"uint8","internalType":"enum Raffle.RaffleState"}],"stateMutability":"view"},{"type":"function","name":"getRecentWinner","inputs":[],"outputs":[{"name":"","type":"address","internalType":"address"}],"stateMutability":"view"},{"type":"function","name":"performUpkeep","inputs":[{"name":"","type":"bytes","internalType":"bytes"}],"outputs":[],"stateMutability":"nonpayable"},{"type":"function","name":"rawFulfillRandomWords","inputs":[{"name":"requestId","type":"uint256","internalType":"uint256"},{"name":"randomWords","type":"uint256[]","internalType":"uint256[]"}],"outputs":[],"stateMutability":"nonpayable"},{"type":"event","name":"EnteredRaffle","inputs":[{"name":"player","type":"address","indexed":true,"internalType":"address"}],"anonymous":false},{"type":"event","name":"PickedWinner","inputs":[{"name":"player","type":"address","indexed":true,"internalType":"address"}],"anonymous":false},{"type":"event","name":"RequestedRaffleWinner","inputs":[{"name":"requestId","type":"uint256","indexed":true,"internalType":"uint256"}],"anonymous":false},{"type":"error","name":"OnlyCoordinatorCanFulfill","inputs":[{"name":"have","type":"address","internalType":"address"},{"name":"want","type":"address","internalType":"address"}]},{"type":"error","name":"Raffle__NotEnoughETHSent","inputs":[]},{"type":"error","name":"Raffle__RaffleNotOpen","inputs":[]},{"type":"error","name":"Raffle__TransferFailed","inputs":[]},{"type":"error","name":"Raffle__UpkeepNotNeeded","inputs":[{"name":"currentBalance","type":"uint256","internalType":"uint256"},{"name":"numPlayers","type":"uint256","internalType":"uint256"},{"name":"raffleState","type":"uint256","internalType":"uint256"}]}],"bytecode":{"object":"0x61016060405234801561001157600080fd5b50604051610ddb380380610ddb83398101604081905261003091610087565b6001600160a01b0393909316608081905260a09590955260c0939093526101409390935260e0929092526001600160401b03166101005263ffffffff16610120526001805460ff60a01b1916905542600255610112565b60008060008060008060c087890312156100a057600080fd5b86516020880151604089015191975095506001600160a01b03811681146100c657600080fd5b6060880151608089015191955093506001600160401b03811681146100ea57600080fd5b60a088015190925063ffffffff8116811461010457600080fd5b809150509295509295509295565b60805160a05160c05160e051610100516101205161014051610c5b610180600039600061050a015260006104cb015260006104940152600061046e01526000818161021a015261061501526000818160bb01526102ed01526000818161026901526102ab0152610c5b6000f3fe6080604052600436106100a75760003560e01c80634585e33b116100645780634585e33b14610169578063473f1ddc14610189578063604094be146101bb5780636e04ff0d146101dd57806391ad27b41461020b578063e55ae4e81461023e57600080fd5b806309bc33a7146100ac5780630ea3df38146100ee578063115cbaf5146101035780631fe543e31461012a5780632cfcc5391461014c5780633789977014610154575b600080fd5b3480156100b857600080fd5b507f00000000000000000000000000000000000000000000000000000000000000005b6040519081526020015b60405180910390f35b3480156100fa57600080fd5b506000546100db565b34801561010f57600080fd5b50600154600160a01b900460ff166040516100e591906108c6565b34801561013657600080fd5b5061014a610145366004610935565b61025e565b005b61014a6102eb565b34801561016057600080fd5b506002546100db565b34801561017557600080fd5b5061014a6101843660046109e7565b6103d6565b34801561019557600080fd5b506001546001600160a01b03165b6040516001600160a01b0390911681526020016100e5565b3480156101c757600080fd5b506101d06105ab565b6040516100e59190610a59565b3480156101e957600080fd5b506101fd6101f8366004610aa6565b61060d565b6040516100e5929190610b3b565b34801561021757600080fd5b507f00000000000000000000000000000000000000000000000000000000000000006100db565b34801561024a57600080fd5b506101a3610259366004610b94565b6106ca565b336001600160a01b037f000000000000000000000000000000000000000000000000000000000000000016146102dd5760405163073e64fd60e21b81523360048201526001600160a01b037f00000000000000000000000000000000000000000000000000000000000000001660248201526044015b60405180910390fd5b6102e782826106f9565b5050565b7f000000000000000000000000000000000000000000000000000000000000000034101561032c5760405163384b5a2b60e11b815260040160405180910390fd5b600060018054600160a01b900460ff169081111561034c5761034c6108b0565b1461036a5760405163349289c560e21b815260040160405180910390fd5b600080546001810182558180527f290decd9548b62a8d60345a988386fc84ba6bc95484008f6362f93160ef3e5630180546001600160a01b0319163390811790915560405190917f819fbd717c9d0b421352c5116a644ca68ba176960c33f406f08d98a27370ca2791a2565b60006103f06040518060200160405280600081525061060d565b5090508061044a5747600080549050600160149054906101000a900460ff166001811115610420576104206108b0565b604051632c2193d560e11b81526004810193909352602483019190915260448201526064016102d4565b60018054600160a01b60ff60a01b199091161781556040516305d3b1d360e41b81527f000000000000000000000000000000000000000000000000000000000000000060048201527f000000000000000000000000000000000000000000000000000000000000000067ffffffffffffffff166024820152600360448201527f000000000000000000000000000000000000000000000000000000000000000063ffffffff16606482015260848101919091526000906001600160a01b037f00000000000000000000000000000000000000000000000000000000000000001690635d3b1d309060a4016020604051808303816000875af1158015610553573d6000803e3d6000fd5b505050506040513d601f19601f820116820180604052508101906105779190610bad565b60405190915081907fcd6e45c8998311cab7e9d4385596cac867e20a0587194b954fa3a731c93ce78b90600090a250505050565b6060600080548060200260200160405190810160405280929190818152602001828054801561060357602002820191906000526020600020905b81546001600160a01b031681526001909101906020018083116105e5575b5050505050905090565b6000606060007f0000000000000000000000000000000000000000000000000000000000000000600254426106429190610bc6565b101590506000600160149054906101000a900460ff166001811115610669576106696108b0565b600080549115925090158015906106805750600047115b61068b57600061068e565b60015b905082801561069a5750815b80156106a35750805b60408051808201909152600381526203078360ec1b60208201529097909650945050505050565b60008082815481106106de576106de610bed565b6000918252602090912001546001600160a01b031692915050565b6000805482518390839061070f5761070f610bed565b60200260200101516107219190610c03565b9050600080828154811061073757610737610bed565b600091825260208083209190910154600180546001600160a81b0319166001600160a01b03909216918217905560408051848152928301908190529151909350610782929190610836565b50426002556040516001600160a01b038216907fb112587e57bfa970257f3d54fc52859c6300f6bd7a982462c320fed45c2530ed90600090a26000816001600160a01b03164760405160006040518083038185875af1925050503d8060008114610808576040519150601f19603f3d011682016040523d82523d6000602084013e61080d565b606091505b505090508061082f5760405163a1d04b3960e01b815260040160405180910390fd5b5050505050565b82805482825590600052602060002090810192821561088b579160200282015b8281111561088b57825182546001600160a01b0319166001600160a01b03909116178255602090920191600190910190610856565b5061089792915061089b565b5090565b5b80821115610897576000815560010161089c565b634e487b7160e01b600052602160045260246000fd5b60208101600283106108e857634e487b7160e01b600052602160045260246000fd5b91905290565b634e487b7160e01b600052604160045260246000fd5b604051601f8201601f1916810167ffffffffffffffff8111828210171561092d5761092d6108ee565b604052919050565b6000806040838503121561094857600080fd5b8235915060208084013567ffffffffffffffff8082111561096857600080fd5b818601915086601f83011261097c57600080fd5b81358181111561098e5761098e6108ee565b8060051b915061099f848301610904565b81815291830184019184810190898411156109b957600080fd5b938501935b838510156109d7578435825293850193908501906109be565b8096505050505050509250929050565b600080602083850312156109fa57600080fd5b823567ffffffffffffffff80821115610a1257600080fd5b818501915085601f830112610a2657600080fd5b813581811115610a3557600080fd5b866020828501011115610a4757600080fd5b60209290920196919550909350505050565b6020808252825182820181905260009190848201906040850190845b81811015610a9a5783516001600160a01b031683529284019291840191600101610a75565b50909695505050505050565b60006020808385031215610ab957600080fd5b823567ffffffffffffffff80821115610ad157600080fd5b818501915085601f830112610ae557600080fd5b813581811115610af757610af76108ee565b610b09601f8201601f19168501610904565b91508082528684828501011115610b1f57600080fd5b8084840185840137600090820190930192909252509392505050565b82151581526000602060406020840152835180604085015260005b81811015610b7257858101830151858201606001528201610b56565b506000606082860101526060601f19601f830116850101925050509392505050565b600060208284031215610ba657600080fd5b5035919050565b600060208284031215610bbf57600080fd5b5051919050565b81810381811115610be757634e487b7160e01b600052601160045260246000fd5b92915050565b634e487b7160e01b600052603260045260246000fd5b600082610c2057634e487b7160e01b600052601260045260246000fd5b50069056fea26469706673582212204bef56ae5bc7bc4ecff57566f02155102a7423e0f562cf78b871472b30c0b88264736f6c63430008180033","linkReferences":{}},"methodIdentifiers":{"checkUpkeep(bytes)":"6e04ff0d","enterRaffle()":"2cfcc539","getEntranceFee()":"09bc33a7","getInterval()":"91ad27b4","getLastTimestamp()":"37899770","getLengthOfPlayers()":"0ea3df38","getPlayer(uint256)":"e55ae4e8","getPlayersArray()":"604094be","getRaffleState()":"115cbaf5","getRecentWinner()":"473f1ddc","performUpkeep(bytes)":"4585e33b","rawFulfillRandomWords(uint256,uint256[])":"1fe543e3"},"id":0}