{"abi":[{"type":"constructor","inputs":[{"name":"entranceFee","type":"uint256","internalType":"uint256"},{"name":"interval","type":"uint256","internalType":"uint256"},{"name":"vrfCoordinator","type":"address","internalType":"address"},{"name":"gasLane","type":"bytes32","internalType":"bytes32"},{"name":"subscriptionId","type":"uint64","internalType":"uint64"},{"name":"callBackGasLimit","type":"uint32","internalType":"uint32"}],"stateMutability":"nonpayable"},{"type":"function","name":"enterRaffle","inputs":[],"outputs":[],"stateMutability":"payable"},{"type":"function","name":"getEntranceFee","inputs":[],"outputs":[{"name":"","type":"uint256","internalType":"uint256"}],"stateMutability":"view"},{"type":"function","name":"pickWinner","inputs":[],"outputs":[],"stateMutability":"nonpayable"},{"type":"event","name":"EnteredRaffle","inputs":[{"name":"player","type":"address","indexed":true,"internalType":"address"}],"anonymous":false},{"type":"error","name":"Raffle__NotEnoughETHSent","inputs":[]}],"bytecode":{"object":"0x61014060405234801561001157600080fd5b5060405161045c38038061045c8339810160408190526100309161006d565b60809590955260a0939093526001600160a01b039091166101205260c0526001600160401b031660e05263ffffffff1661010052426001556100f8565b60008060008060008060c0878903121561008657600080fd5b86516020880151604089015191975095506001600160a01b03811681146100ac57600080fd5b6060880151608089015191955093506001600160401b03811681146100d057600080fd5b60a088015190925063ffffffff811681146100ea57600080fd5b809150509295509295509295565b60805160a05160c05160e051610100516101205161031061014c6000396000610221015260006101f0015260006101bd0152600061018e0152600061014701526000818160480152609a01526103106000f3fe6080604052600436106100345760003560e01c806309bc33a7146100395780632cfcc539146100795780635d495aea14610083575b600080fd5b34801561004557600080fd5b507f000000000000000000000000000000000000000000000000000000000000000060405190815260200160405180910390f35b610081610098565b005b34801561008f57600080fd5b50610081610145565b7f00000000000000000000000000000000000000000000000000000000000000003410156100d95760405163384b5a2b60e11b815260040160405180910390fd5b600080546001810182558180527f290decd9548b62a8d60345a988386fc84ba6bc95484008f6362f93160ef3e5630180546001600160a01b0319163390811790915560405190917f819fbd717c9d0b421352c5116a644ca68ba176960c33f406f08d98a27370ca2791a2565b7f000000000000000000000000000000000000000000000000000000000000000060015442610174919061029a565b101561017f57600080fd5b6040516305d3b1d360e41b81527f0000000000000000000000000000000000000000000000000000000000000000600482015267ffffffffffffffff7f00000000000000000000000000000000000000000000000000000000000000001660248201526003604482015263ffffffff7f0000000000000000000000000000000000000000000000000000000000000000166064820152600160848201526000907f00000000000000000000000000000000000000000000000000000000000000006001600160a01b031690635d3b1d309060a4016020604051808303816000875af1158015610272573d6000803e3d6000fd5b505050506040513d601f19601f8201168201806040525081019061029691906102c1565b5050565b818103818111156102bb57634e487b7160e01b600052601160045260246000fd5b92915050565b6000602082840312156102d357600080fd5b505191905056fea26469706673582212207ceaeaca9e6733c209bab7ebae1624d37ae00cdc49642877667aa4a22d51e49c64736f6c63430008180033","linkReferences":{}},"methodIdentifiers":{"enterRaffle()":"2cfcc539","getEntranceFee()":"09bc33a7","pickWinner()":"5d495aea"},"id":0}