{"abi":[{"type":"constructor","inputs":[{"name":"entranceFee","type":"uint256","internalType":"uint256"},{"name":"interval","type":"uint256","internalType":"uint256"},{"name":"vrfCoordinator","type":"address","internalType":"address"},{"name":"gasLane","type":"bytes32","internalType":"bytes32"},{"name":"subscriptionId","type":"uint64","internalType":"uint64"},{"name":"callBackGasLimit","type":"uint32","internalType":"uint32"}],"stateMutability":"nonpayable"},{"type":"function","name":"checkUpkeep","inputs":[{"name":"","type":"bytes","internalType":"bytes"}],"outputs":[{"name":"upkeepNeeded","type":"bool","internalType":"bool"},{"name":"","type":"bytes","internalType":"bytes"}],"stateMutability":"view"},{"type":"function","name":"enterRaffle","inputs":[],"outputs":[],"stateMutability":"payable"},{"type":"function","name":"getEntranceFee","inputs":[],"outputs":[{"name":"","type":"uint256","internalType":"uint256"}],"stateMutability":"view"},{"type":"function","name":"getLastTimestamp","inputs":[],"outputs":[{"name":"","type":"uint256","internalType":"uint256"}],"stateMutability":"view"},{"type":"function","name":"getLengthOfPlayers","inputs":[],"outputs":[{"name":"","type":"uint256","internalType":"uint256"}],"stateMutability":"view"},{"type":"function","name":"getPlayer","inputs":[{"name":"index","type":"uint256","internalType":"uint256"}],"outputs":[{"name":"","type":"address","internalType":"address"}],"stateMutability":"view"},{"type":"function","name":"getPlayersArray","inputs":[],"outputs":[{"name":"","type":"address[]","internalType":"address payable[]"}],"stateMutability":"view"},{"type":"function","name":"getRaffleState","inputs":[],"outputs":[{"name":"","type":"uint8","internalType":"enum Raffle.RaffleState"}],"stateMutability":"view"},{"type":"function","name":"getRecentWinner","inputs":[],"outputs":[{"name":"","type":"address","internalType":"address"}],"stateMutability":"view"},{"type":"function","name":"performUpkeep","inputs":[{"name":"","type":"bytes","internalType":"bytes"}],"outputs":[],"stateMutability":"nonpayable"},{"type":"function","name":"rawFulfillRandomWords","inputs":[{"name":"requestId","type":"uint256","internalType":"uint256"},{"name":"randomWords","type":"uint256[]","internalType":"uint256[]"}],"outputs":[],"stateMutability":"nonpayable"},{"type":"event","name":"EnteredRaffle","inputs":[{"name":"player","type":"address","indexed":true,"internalType":"address"}],"anonymous":false},{"type":"event","name":"PickedWinner","inputs":[{"name":"player","type":"address","indexed":true,"internalType":"address"}],"anonymous":false},{"type":"event","name":"RequestedRaffleWinner","inputs":[{"name":"requestId","type":"uint256","indexed":true,"internalType":"uint256"}],"anonymous":false},{"type":"error","name":"OnlyCoordinatorCanFulfill","inputs":[{"name":"have","type":"address","internalType":"address"},{"name":"want","type":"address","internalType":"address"}]},{"type":"error","name":"Raffle__NotEnoughETHSent","inputs":[]},{"type":"error","name":"Raffle__RaffleNotOpen","inputs":[]},{"type":"error","name":"Raffle__TransferFailed","inputs":[]},{"type":"error","name":"Raffle__UpkeepNotNeeded","inputs":[{"name":"currentBalance","type":"uint256","internalType":"uint256"},{"name":"numPlayers","type":"uint256","internalType":"uint256"},{"name":"raffleState","type":"uint256","internalType":"uint256"}]}],"bytecode":{"object":"0x61016060405234801561001157600080fd5b50604051610d96380380610d9683398101604081905261003091610087565b6001600160a01b0393909316608081905260a09590955260c0939093526101409390935260e0929092526001600160401b03166101005263ffffffff16610120526001805460ff60a01b1916905542600255610112565b60008060008060008060c087890312156100a057600080fd5b86516020880151604089015191975095506001600160a01b03811681146100c657600080fd5b6060880151608089015191955093506001600160401b03811681146100ea57600080fd5b60a088015190925063ffffffff8116811461010457600080fd5b809150509295509295509295565b60805160a05160c05160e051610100516101205161014051610c1d61017960003960006104cc0152600061048d0152600061045601526000610430015260006105d701526000818160b001526102af01526000818161022b015261026d0152610c1d6000f3fe60806040526004361061009c5760003560e01c8063378997701161006457806337899770146101495780634585e33b1461015e578063473f1ddc1461017e578063604094be146101b05780636e04ff0d146101d2578063e55ae4e81461020057600080fd5b806309bc33a7146100a15780630ea3df38146100e3578063115cbaf5146100f85780631fe543e31461011f5780632cfcc53914610141575b600080fd5b3480156100ad57600080fd5b507f00000000000000000000000000000000000000000000000000000000000000005b6040519081526020015b60405180910390f35b3480156100ef57600080fd5b506000546100d0565b34801561010457600080fd5b50600154600160a01b900460ff166040516100da9190610888565b34801561012b57600080fd5b5061013f61013a3660046108f7565b610220565b005b61013f6102ad565b34801561015557600080fd5b506002546100d0565b34801561016a57600080fd5b5061013f6101793660046109a9565b610398565b34801561018a57600080fd5b506001546001600160a01b03165b6040516001600160a01b0390911681526020016100da565b3480156101bc57600080fd5b506101c561056d565b6040516100da9190610a1b565b3480156101de57600080fd5b506101f26101ed366004610a68565b6105cf565b6040516100da929190610afd565b34801561020c57600080fd5b5061019861021b366004610b56565b61068c565b336001600160a01b037f0000000000000000000000000000000000000000000000000000000000000000161461029f5760405163073e64fd60e21b81523360048201526001600160a01b037f00000000000000000000000000000000000000000000000000000000000000001660248201526044015b60405180910390fd5b6102a982826106bb565b5050565b7f00000000000000000000000000000000000000000000000000000000000000003410156102ee5760405163384b5a2b60e11b815260040160405180910390fd5b600060018054600160a01b900460ff169081111561030e5761030e610872565b1461032c5760405163349289c560e21b815260040160405180910390fd5b600080546001810182558180527f290decd9548b62a8d60345a988386fc84ba6bc95484008f6362f93160ef3e5630180546001600160a01b0319163390811790915560405190917f819fbd717c9d0b421352c5116a644ca68ba176960c33f406f08d98a27370ca2791a2565b60006103b2604051806020016040528060008152506105cf565b5090508061040c5747600080549050600160149054906101000a900460ff1660018111156103e2576103e2610872565b604051632c2193d560e11b8152600481019390935260248301919091526044820152606401610296565b60018054600160a01b60ff60a01b199091161781556040516305d3b1d360e41b81527f000000000000000000000000000000000000000000000000000000000000000060048201527f000000000000000000000000000000000000000000000000000000000000000067ffffffffffffffff166024820152600360448201527f000000000000000000000000000000000000000000000000000000000000000063ffffffff16606482015260848101919091526000906001600160a01b037f00000000000000000000000000000000000000000000000000000000000000001690635d3b1d309060a4016020604051808303816000875af1158015610515573d6000803e3d6000fd5b505050506040513d601f19601f820116820180604052508101906105399190610b6f565b60405190915081907fcd6e45c8998311cab7e9d4385596cac867e20a0587194b954fa3a731c93ce78b90600090a250505050565b606060008054806020026020016040519081016040528092919081815260200182805480156105c557602002820191906000526020600020905b81546001600160a01b031681526001909101906020018083116105a7575b5050505050905090565b6000606060007f0000000000000000000000000000000000000000000000000000000000000000600254426106049190610b88565b101590506000600160149054906101000a900460ff16600181111561062b5761062b610872565b600080549115925090158015906106425750600047115b61064d576000610650565b60015b905082801561065c5750815b80156106655750805b60408051808201909152600381526203078360ec1b60208201529097909650945050505050565b60008082815481106106a0576106a0610baf565b6000918252602090912001546001600160a01b031692915050565b600080548251839083906106d1576106d1610baf565b60200260200101516106e39190610bc5565b905060008082815481106106f9576106f9610baf565b600091825260208083209190910154600180546001600160a81b0319166001600160a01b039092169182179055604080518481529283019081905291519093506107449291906107f8565b50426002556040516001600160a01b038216907fb112587e57bfa970257f3d54fc52859c6300f6bd7a982462c320fed45c2530ed90600090a26000816001600160a01b03164760405160006040518083038185875af1925050503d80600081146107ca576040519150601f19603f3d011682016040523d82523d6000602084013e6107cf565b606091505b50509050806107f15760405163a1d04b3960e01b815260040160405180910390fd5b5050505050565b82805482825590600052602060002090810192821561084d579160200282015b8281111561084d57825182546001600160a01b0319166001600160a01b03909116178255602090920191600190910190610818565b5061085992915061085d565b5090565b5b80821115610859576000815560010161085e565b634e487b7160e01b600052602160045260246000fd5b60208101600283106108aa57634e487b7160e01b600052602160045260246000fd5b91905290565b634e487b7160e01b600052604160045260246000fd5b604051601f8201601f1916810167ffffffffffffffff811182821017156108ef576108ef6108b0565b604052919050565b6000806040838503121561090a57600080fd5b8235915060208084013567ffffffffffffffff8082111561092a57600080fd5b818601915086601f83011261093e57600080fd5b813581811115610950576109506108b0565b8060051b91506109618483016108c6565b818152918301840191848101908984111561097b57600080fd5b938501935b8385101561099957843582529385019390850190610980565b8096505050505050509250929050565b600080602083850312156109bc57600080fd5b823567ffffffffffffffff808211156109d457600080fd5b818501915085601f8301126109e857600080fd5b8135818111156109f757600080fd5b866020828501011115610a0957600080fd5b60209290920196919550909350505050565b6020808252825182820181905260009190848201906040850190845b81811015610a5c5783516001600160a01b031683529284019291840191600101610a37565b50909695505050505050565b60006020808385031215610a7b57600080fd5b823567ffffffffffffffff80821115610a9357600080fd5b818501915085601f830112610aa757600080fd5b813581811115610ab957610ab96108b0565b610acb601f8201601f191685016108c6565b91508082528684828501011115610ae157600080fd5b8084840185840137600090820190930192909252509392505050565b82151581526000602060406020840152835180604085015260005b81811015610b3457858101830151858201606001528201610b18565b506000606082860101526060601f19601f830116850101925050509392505050565b600060208284031215610b6857600080fd5b5035919050565b600060208284031215610b8157600080fd5b5051919050565b81810381811115610ba957634e487b7160e01b600052601160045260246000fd5b92915050565b634e487b7160e01b600052603260045260246000fd5b600082610be257634e487b7160e01b600052601260045260246000fd5b50069056fea26469706673582212200ad09015bee845a1b62e905663718217253084c3eac49bd5dd86b514fc026b2764736f6c63430008180033","linkReferences":{}},"methodIdentifiers":{"checkUpkeep(bytes)":"6e04ff0d","enterRaffle()":"2cfcc539","getEntranceFee()":"09bc33a7","getLastTimestamp()":"37899770","getLengthOfPlayers()":"0ea3df38","getPlayer(uint256)":"e55ae4e8","getPlayersArray()":"604094be","getRaffleState()":"115cbaf5","getRecentWinner()":"473f1ddc","performUpkeep(bytes)":"4585e33b","rawFulfillRandomWords(uint256,uint256[])":"1fe543e3"},"id":0}