{"abi":[{"type":"constructor","inputs":[{"name":"entranceFee","type":"uint256","internalType":"uint256"},{"name":"interval","type":"uint256","internalType":"uint256"},{"name":"vrfCoordinator","type":"address","internalType":"address"},{"name":"gasLane","type":"bytes32","internalType":"bytes32"},{"name":"subscriptionId","type":"uint64","internalType":"uint64"},{"name":"callBackGasLimit","type":"uint32","internalType":"uint32"}],"stateMutability":"nonpayable"},{"type":"function","name":"checkUpkeep","inputs":[{"name":"","type":"bytes","internalType":"bytes"}],"outputs":[{"name":"upkeepNeeded","type":"bool","internalType":"bool"},{"name":"","type":"bytes","internalType":"bytes"}],"stateMutability":"view"},{"type":"function","name":"enterRaffle","inputs":[],"outputs":[],"stateMutability":"payable"},{"type":"function","name":"getEntranceFee","inputs":[],"outputs":[{"name":"","type":"uint256","internalType":"uint256"}],"stateMutability":"view"},{"type":"function","name":"performUpkeep","inputs":[{"name":"","type":"bytes","internalType":"bytes"}],"outputs":[],"stateMutability":"nonpayable"},{"type":"function","name":"rawFulfillRandomWords","inputs":[{"name":"requestId","type":"uint256","internalType":"uint256"},{"name":"randomWords","type":"uint256[]","internalType":"uint256[]"}],"outputs":[],"stateMutability":"nonpayable"},{"type":"event","name":"EnteredRaffle","inputs":[{"name":"player","type":"address","indexed":true,"internalType":"address"}],"anonymous":false},{"type":"event","name":"PickedWinner","inputs":[{"name":"player","type":"address","indexed":true,"internalType":"address"}],"anonymous":false},{"type":"error","name":"OnlyCoordinatorCanFulfill","inputs":[{"name":"have","type":"address","internalType":"address"},{"name":"want","type":"address","internalType":"address"}]},{"type":"error","name":"Raffle__NotEnoughETHSent","inputs":[]},{"type":"error","name":"Raffle__RaffleNotOpen","inputs":[]},{"type":"error","name":"Raffle__TransferFailed","inputs":[]},{"type":"error","name":"Raffle__UpkeepNotNeeded","inputs":[{"name":"currentBalance","type":"uint256","internalType":"uint256"},{"name":"numPlayers","type":"uint256","internalType":"uint256"},{"name":"raffleState","type":"uint256","internalType":"uint256"}]}],"bytecode":{"object":"0x61016060405234801561001157600080fd5b50604051610b2d380380610b2d83398101604081905261003091610087565b6001600160a01b0393909316608081905260a09590955260c0939093526101409390935260e0929092526001600160401b03166101005263ffffffff16610120526001805460ff60a01b1916905542600255610112565b60008060008060008060c087890312156100a057600080fd5b86516020880151604089015191975095506001600160a01b03811681146100c657600080fd5b6060880151608089015191955093506001600160401b03811681146100ea57600080fd5b60a088015190925063ffffffff8116811461010457600080fd5b809150509295509295509295565b60805160a05160c05160e0516101005161012051610140516109b461017960003960006103b0015260006103740152600061033d015260006103170152600061042b01526000818160610152610196015260008181610112015261015401526109b46000f3fe60806040526004361061004a5760003560e01c806309bc33a71461004f5780631fe543e31461008f5780632cfcc539146100b15780634585e33b146100b95780636e04ff0d146100d9575b600080fd5b34801561005b57600080fd5b506040517f000000000000000000000000000000000000000000000000000000000000000081526020015b60405180910390f35b34801561009b57600080fd5b506100af6100aa3660046106de565b610107565b005b6100af610194565b3480156100c557600080fd5b506100af6100d4366004610790565b61027f565b3480156100e557600080fd5b506100f96100f4366004610802565b610423565b604051610086929190610897565b336001600160a01b037f000000000000000000000000000000000000000000000000000000000000000016146101865760405163073e64fd60e21b81523360048201526001600160a01b037f00000000000000000000000000000000000000000000000000000000000000001660248201526044015b60405180910390fd5b61019082826104e0565b5050565b7f00000000000000000000000000000000000000000000000000000000000000003410156101d55760405163384b5a2b60e11b815260040160405180910390fd5b600060018054600160a01b900460ff16908111156101f5576101f56108f0565b146102135760405163349289c560e21b815260040160405180910390fd5b600080546001810182558180527f290decd9548b62a8d60345a988386fc84ba6bc95484008f6362f93160ef3e5630180546001600160a01b0319163390811790915560405190917f819fbd717c9d0b421352c5116a644ca68ba176960c33f406f08d98a27370ca2791a2565b600061029960405180602001604052806000815250610423565b509050806102f35747600080549050600160149054906101000a900460ff1660018111156102c9576102c96108f0565b604051632c2193d560e11b815260048101939093526024830191909152604482015260640161017d565b60018054600160a01b60ff60a01b199091161781556040516305d3b1d360e41b81527f000000000000000000000000000000000000000000000000000000000000000060048201527f000000000000000000000000000000000000000000000000000000000000000067ffffffffffffffff166024820152600360448201527f000000000000000000000000000000000000000000000000000000000000000063ffffffff16606482015260848101919091526001600160a01b037f00000000000000000000000000000000000000000000000000000000000000001690635d3b1d309060a4016020604051808303816000875af11580156103f9573d6000803e3d6000fd5b505050506040513d601f19601f8201168201806040525081019061041d9190610906565b50505050565b6000606060007f000000000000000000000000000000000000000000000000000000000000000060025442610458919061091f565b101590506000600160149054906101000a900460ff16600181111561047f5761047f6108f0565b600080549115925090158015906104965750600047115b6104a15760006104a4565b60015b90508280156104b05750815b80156104b95750805b60408051808201909152600381526203078360ec1b60208201529097909650945050505050565b600080548251839083906104f6576104f6610946565b6020026020010151610508919061095c565b9050600080828154811061051e5761051e610946565b600091825260208083209190910154600180546001600160a81b0319166001600160a01b0390921691821790556040805184815292830190819052915190935061056992919061061d565b50426002556040516001600160a01b038216907fb112587e57bfa970257f3d54fc52859c6300f6bd7a982462c320fed45c2530ed90600090a26000816001600160a01b03164760405160006040518083038185875af1925050503d80600081146105ef576040519150601f19603f3d011682016040523d82523d6000602084013e6105f4565b606091505b50509050806106165760405163a1d04b3960e01b815260040160405180910390fd5b5050505050565b828054828255906000526020600020908101928215610672579160200282015b8281111561067257825182546001600160a01b0319166001600160a01b0390911617825560209092019160019091019061063d565b5061067e929150610682565b5090565b5b8082111561067e5760008155600101610683565b634e487b7160e01b600052604160045260246000fd5b604051601f8201601f1916810167ffffffffffffffff811182821017156106d6576106d6610697565b604052919050565b600080604083850312156106f157600080fd5b8235915060208084013567ffffffffffffffff8082111561071157600080fd5b818601915086601f83011261072557600080fd5b81358181111561073757610737610697565b8060051b91506107488483016106ad565b818152918301840191848101908984111561076257600080fd5b938501935b8385101561078057843582529385019390850190610767565b8096505050505050509250929050565b600080602083850312156107a357600080fd5b823567ffffffffffffffff808211156107bb57600080fd5b818501915085601f8301126107cf57600080fd5b8135818111156107de57600080fd5b8660208285010111156107f057600080fd5b60209290920196919550909350505050565b6000602080838503121561081557600080fd5b823567ffffffffffffffff8082111561082d57600080fd5b818501915085601f83011261084157600080fd5b81358181111561085357610853610697565b610865601f8201601f191685016106ad565b9150808252868482850101111561087b57600080fd5b8084840185840137600090820190930192909252509392505050565b82151581526000602060406020840152835180604085015260005b818110156108ce578581018301518582016060015282016108b2565b506000606082860101526060601f19601f830116850101925050509392505050565b634e487b7160e01b600052602160045260246000fd5b60006020828403121561091857600080fd5b5051919050565b8181038181111561094057634e487b7160e01b600052601160045260246000fd5b92915050565b634e487b7160e01b600052603260045260246000fd5b60008261097957634e487b7160e01b600052601260045260246000fd5b50069056fea264697066735822122024be291dac601ea9f60a8e8b92796962622c20f6630acd50f6e0989f263c2fde64736f6c63430008180033","linkReferences":{}},"methodIdentifiers":{"checkUpkeep(bytes)":"6e04ff0d","enterRaffle()":"2cfcc539","getEntranceFee()":"09bc33a7","performUpkeep(bytes)":"4585e33b","rawFulfillRandomWords(uint256,uint256[])":"1fe543e3"},"id":0}