{"abi":[{"type":"constructor","inputs":[{"name":"entranceFee","type":"uint256","internalType":"uint256"},{"name":"interval","type":"uint256","internalType":"uint256"},{"name":"vrfCoordinator","type":"address","internalType":"address"},{"name":"gasLane","type":"bytes32","internalType":"bytes32"},{"name":"subscriptionId","type":"uint64","internalType":"uint64"},{"name":"callBackGasLimit","type":"uint32","internalType":"uint32"}],"stateMutability":"nonpayable"},{"type":"function","name":"checkUpkeep","inputs":[{"name":"","type":"bytes","internalType":"bytes"}],"outputs":[{"name":"upkeepNeeded","type":"bool","internalType":"bool"},{"name":"","type":"bytes","internalType":"bytes"}],"stateMutability":"view"},{"type":"function","name":"enterRaffle","inputs":[],"outputs":[],"stateMutability":"payable"},{"type":"function","name":"getEntranceFee","inputs":[],"outputs":[{"name":"","type":"uint256","internalType":"uint256"}],"stateMutability":"view"},{"type":"function","name":"getPlayer","inputs":[{"name":"index","type":"uint256","internalType":"uint256"}],"outputs":[{"name":"","type":"address","internalType":"address"}],"stateMutability":"view"},{"type":"function","name":"getPlayersArray","inputs":[],"outputs":[{"name":"","type":"address[]","internalType":"address payable[]"}],"stateMutability":"view"},{"type":"function","name":"getRaffleState","inputs":[],"outputs":[{"name":"","type":"uint8","internalType":"enum Raffle.RaffleState"}],"stateMutability":"view"},{"type":"function","name":"performUpkeep","inputs":[{"name":"","type":"bytes","internalType":"bytes"}],"outputs":[],"stateMutability":"nonpayable"},{"type":"function","name":"rawFulfillRandomWords","inputs":[{"name":"requestId","type":"uint256","internalType":"uint256"},{"name":"randomWords","type":"uint256[]","internalType":"uint256[]"}],"outputs":[],"stateMutability":"nonpayable"},{"type":"event","name":"EnteredRaffle","inputs":[{"name":"player","type":"address","indexed":true,"internalType":"address"}],"anonymous":false},{"type":"event","name":"PickedWinner","inputs":[{"name":"player","type":"address","indexed":true,"internalType":"address"}],"anonymous":false},{"type":"error","name":"OnlyCoordinatorCanFulfill","inputs":[{"name":"have","type":"address","internalType":"address"},{"name":"want","type":"address","internalType":"address"}]},{"type":"error","name":"Raffle__NotEnoughETHSent","inputs":[]},{"type":"error","name":"Raffle__RaffleNotOpen","inputs":[]},{"type":"error","name":"Raffle__TransferFailed","inputs":[]},{"type":"error","name":"Raffle__UpkeepNotNeeded","inputs":[{"name":"currentBalance","type":"uint256","internalType":"uint256"},{"name":"numPlayers","type":"uint256","internalType":"uint256"},{"name":"raffleState","type":"uint256","internalType":"uint256"}]}],"bytecode":{"object":"0x61016060405234801561001157600080fd5b50604051610cfe380380610cfe83398101604081905261003091610087565b6001600160a01b0393909316608081905260a09590955260c0939093526101409390935260e0929092526001600160401b03166101005263ffffffff16610120526001805460ff60a01b1916905542600255610112565b60008060008060008060c087890312156100a057600080fd5b86516020880151604089015191975095506001600160a01b03811681146100c657600080fd5b6060880151608089015191955093506001600160401b03811681146100ea57600080fd5b60a088015190925063ffffffff8116811461010457600080fd5b809150509295509295509295565b60805160a05160c05160e051610100516101205161014051610b85610179600039600061046201526000610426015260006103ef015260006103c90152600061053f015260008181609201526102480152600081816101c401526102060152610b856000f3fe60806040526004361061007b5760003560e01c80634585e33b1161004e5780634585e33b14610111578063604094be146101315780636e04ff0d14610153578063e55ae4e81461018157600080fd5b806309bc33a714610080578063115cbaf5146100c05780631fe543e3146100e75780632cfcc53914610109575b600080fd5b34801561008c57600080fd5b506040517f000000000000000000000000000000000000000000000000000000000000000081526020015b60405180910390f35b3480156100cc57600080fd5b50600154600160a01b900460ff166040516100b791906107f0565b3480156100f357600080fd5b5061010761010236600461085f565b6101b9565b005b610107610246565b34801561011d57600080fd5b5061010761012c366004610911565b610331565b34801561013d57600080fd5b506101466104d5565b6040516100b79190610983565b34801561015f57600080fd5b5061017361016e3660046109d0565b610537565b6040516100b7929190610a65565b34801561018d57600080fd5b506101a161019c366004610abe565b6105f4565b6040516001600160a01b0390911681526020016100b7565b336001600160a01b037f000000000000000000000000000000000000000000000000000000000000000016146102385760405163073e64fd60e21b81523360048201526001600160a01b037f00000000000000000000000000000000000000000000000000000000000000001660248201526044015b60405180910390fd5b6102428282610623565b5050565b7f00000000000000000000000000000000000000000000000000000000000000003410156102875760405163384b5a2b60e11b815260040160405180910390fd5b600060018054600160a01b900460ff16908111156102a7576102a76107da565b146102c55760405163349289c560e21b815260040160405180910390fd5b600080546001810182558180527f290decd9548b62a8d60345a988386fc84ba6bc95484008f6362f93160ef3e5630180546001600160a01b0319163390811790915560405190917f819fbd717c9d0b421352c5116a644ca68ba176960c33f406f08d98a27370ca2791a2565b600061034b60405180602001604052806000815250610537565b509050806103a55747600080549050600160149054906101000a900460ff16600181111561037b5761037b6107da565b604051632c2193d560e11b815260048101939093526024830191909152604482015260640161022f565b60018054600160a01b60ff60a01b199091161781556040516305d3b1d360e41b81527f000000000000000000000000000000000000000000000000000000000000000060048201527f000000000000000000000000000000000000000000000000000000000000000067ffffffffffffffff166024820152600360448201527f000000000000000000000000000000000000000000000000000000000000000063ffffffff16606482015260848101919091526001600160a01b037f00000000000000000000000000000000000000000000000000000000000000001690635d3b1d309060a4016020604051808303816000875af11580156104ab573d6000803e3d6000fd5b505050506040513d601f19601f820116820180604052508101906104cf9190610ad7565b50505050565b6060600080548060200260200160405190810160405280929190818152602001828054801561052d57602002820191906000526020600020905b81546001600160a01b0316815260019091019060200180831161050f575b5050505050905090565b6000606060007f00000000000000000000000000000000000000000000000000000000000000006002544261056c9190610af0565b101590506000600160149054906101000a900460ff166001811115610593576105936107da565b600080549115925090158015906105aa5750600047115b6105b55760006105b8565b60015b90508280156105c45750815b80156105cd5750805b60408051808201909152600381526203078360ec1b60208201529097909650945050505050565b600080828154811061060857610608610b17565b6000918252602090912001546001600160a01b031692915050565b6000805482518390839061063957610639610b17565b602002602001015161064b9190610b2d565b9050600080828154811061066157610661610b17565b600091825260208083209190910154600180546001600160a81b0319166001600160a01b039092169182179055604080518481529283019081905291519093506106ac929190610760565b50426002556040516001600160a01b038216907fb112587e57bfa970257f3d54fc52859c6300f6bd7a982462c320fed45c2530ed90600090a26000816001600160a01b03164760405160006040518083038185875af1925050503d8060008114610732576040519150601f19603f3d011682016040523d82523d6000602084013e610737565b606091505b50509050806107595760405163a1d04b3960e01b815260040160405180910390fd5b5050505050565b8280548282559060005260206000209081019282156107b5579160200282015b828111156107b557825182546001600160a01b0319166001600160a01b03909116178255602090920191600190910190610780565b506107c19291506107c5565b5090565b5b808211156107c157600081556001016107c6565b634e487b7160e01b600052602160045260246000fd5b602081016002831061081257634e487b7160e01b600052602160045260246000fd5b91905290565b634e487b7160e01b600052604160045260246000fd5b604051601f8201601f1916810167ffffffffffffffff8111828210171561085757610857610818565b604052919050565b6000806040838503121561087257600080fd5b8235915060208084013567ffffffffffffffff8082111561089257600080fd5b818601915086601f8301126108a657600080fd5b8135818111156108b8576108b8610818565b8060051b91506108c984830161082e565b81815291830184019184810190898411156108e357600080fd5b938501935b83851015610901578435825293850193908501906108e8565b8096505050505050509250929050565b6000806020838503121561092457600080fd5b823567ffffffffffffffff8082111561093c57600080fd5b818501915085601f83011261095057600080fd5b81358181111561095f57600080fd5b86602082850101111561097157600080fd5b60209290920196919550909350505050565b6020808252825182820181905260009190848201906040850190845b818110156109c45783516001600160a01b03168352928401929184019160010161099f565b50909695505050505050565b600060208083850312156109e357600080fd5b823567ffffffffffffffff808211156109fb57600080fd5b818501915085601f830112610a0f57600080fd5b813581811115610a2157610a21610818565b610a33601f8201601f1916850161082e565b91508082528684828501011115610a4957600080fd5b8084840185840137600090820190930192909252509392505050565b82151581526000602060406020840152835180604085015260005b81811015610a9c57858101830151858201606001528201610a80565b506000606082860101526060601f19601f830116850101925050509392505050565b600060208284031215610ad057600080fd5b5035919050565b600060208284031215610ae957600080fd5b5051919050565b81810381811115610b1157634e487b7160e01b600052601160045260246000fd5b92915050565b634e487b7160e01b600052603260045260246000fd5b600082610b4a57634e487b7160e01b600052601260045260246000fd5b50069056fea264697066735822122047530908bfecd432d21da8721f3ace91c4fe63ac77c181b359b67c2e91c1afff64736f6c63430008180033","linkReferences":{}},"methodIdentifiers":{"checkUpkeep(bytes)":"6e04ff0d","enterRaffle()":"2cfcc539","getEntranceFee()":"09bc33a7","getPlayer(uint256)":"e55ae4e8","getPlayersArray()":"604094be","getRaffleState()":"115cbaf5","performUpkeep(bytes)":"4585e33b","rawFulfillRandomWords(uint256,uint256[])":"1fe543e3"},"id":0}